:040000000128FE2BAA
:10078600C623CC23C42B033021008C0020008C010F
:10079600080020008C150C148C140C150C168C16E5
:1007A6000130DF2320008C110C108C100C110C1260
:1007B6008C120130DF230800F100F2017108720289
:1007C60003180800F301643073020318F92B0D3087
:1007D600F000FC30890BED2BF00BED2B0130F00017
:1007E6007008F30764307302031CEA2B0130F00033
:0A07F6007008F207E12B2000C32B6E
:020000040001F9
:04000E00A4F9FFFC56
:00000001FF
